{
  "contractName": "Wallet",
  "abi": [
    {
      "inputs": [
        {
          "internalType": "address[]",
          "name": "_approvers",
          "type": "address[]"
        },
        {
          "internalType": "uint256",
          "name": "_quorum",
          "type": "uint256"
        }
      ],
      "stateMutability": "nonpayable",
      "type": "constructor"
    },
    {
      "inputs": [
        {
          "internalType": "address",
          "name": "",
          "type": "address"
        },
        {
          "internalType": "uint256",
          "name": "",
          "type": "uint256"
        }
      ],
      "name": "approvals",
      "outputs": [
        {
          "internalType": "bool",
          "name": "",
          "type": "bool"
        }
      ],
      "stateMutability": "view",
      "type": "function",
      "constant": true
    },
    {
      "inputs": [
        {
          "internalType": "uint256",
          "name": "",
          "type": "uint256"
        }
      ],
      "name": "approvers",
      "outputs": [
        {
          "internalType": "address",
          "name": "",
          "type": "address"
        }
      ],
      "stateMutability": "view",
      "type": "function",
      "constant": true
    },
    {
      "inputs": [],
      "name": "quorum",
      "outputs": [
        {
          "internalType": "uint256",
          "name": "",
          "type": "uint256"
        }
      ],
      "stateMutability": "view",
      "type": "function",
      "constant": true
    },
    {
      "inputs": [
        {
          "internalType": "uint256",
          "name": "",
          "type": "uint256"
        }
      ],
      "name": "transfers",
      "outputs": [
        {
          "internalType": "uint256",
          "name": "id",
          "type": "uint256"
        },
        {
          "internalType": "address payable",
          "name": "to",
          "type": "address"
        },
        {
          "internalType": "uint256",
          "name": "approvals",
          "type": "uint256"
        },
        {
          "internalType": "uint256",
          "name": "amount",
          "type": "uint256"
        },
        {
          "internalType": "bool",
          "name": "sent",
          "type": "bool"
        }
      ],
      "stateMutability": "view",
      "type": "function",
      "constant": true
    },
    {
      "stateMutability": "payable",
      "type": "receive",
      "payable": true
    },
    {
      "inputs": [
        {
          "internalType": "address payable",
          "name": "_to",
          "type": "address"
        },
        {
          "internalType": "uint256",
          "name": "_amount",
          "type": "uint256"
        }
      ],
      "name": "propose",
      "outputs": [],
      "stateMutability": "nonpayable",
      "type": "function"
    },
    {
      "inputs": [
        {
          "internalType": "uint256",
          "name": "_id",
          "type": "uint256"
        }
      ],
      "name": "approve",
      "outputs": [
        {
          "internalType": "bool",
          "name": "",
          "type": "bool"
        }
      ],
      "stateMutability": "nonpayable",
      "type": "function"
    },
    {
      "inputs": [],
      "name": "getApprovers",
      "outputs": [
        {
          "internalType": "address[]",
          "name": "",
          "type": "address[]"
        }
      ],
      "stateMutability": "view",
      "type": "function",
      "constant": true
    },
    {
      "inputs": [
        {
          "internalType": "address",
          "name": "_approver",
          "type": "address"
        }
      ],
      "name": "getApprovals",
      "outputs": [
        {
          "internalType": "bool[]",
          "name": "",
          "type": "bool[]"
        }
      ],
      "stateMutability": "view",
      "type": "function",
      "constant": true
    },
    {
      "inputs": [],
      "name": "getTransfers",
      "outputs": [
        {
          "components": [
            {
              "internalType": "uint256",
              "name": "id",
              "type": "uint256"
            },
            {
              "internalType": "address payable",
              "name": "to",
              "type": "address"
            },
            {
              "internalType": "uint256",
              "name": "approvals",
              "type": "uint256"
            },
            {
              "internalType": "uint256",
              "name": "amount",
              "type": "uint256"
            },
            {
              "internalType": "bool",
              "name": "sent",
              "type": "bool"
            }
          ],
          "internalType": "struct Wallet.Transfer[]",
          "name": "",
          "type": "tuple[]"
        }
      ],
      "stateMutability": "view",
      "type": "function",
      "constant": true
    }
  ],
  "bytecode": "0x60806040523480156200001157600080fd5b506040516200153f3803806200153f8339818101604052810190620000379190620001e6565b81600090805190602001906200004f9291906200005f565b5080600181905550505062000309565b828054828255906000526020600020908101928215620000db579160200282015b82811115620000da5782518260006101000a81548173ffffffffffffffffffffffffffffffffffffffff021916908373ffffffffffffffffffffffffffffffffffffffff1602179055509160200191906001019062000080565b5b509050620000ea9190620000ee565b5090565b5b808211156200012757600081816101000a81549073ffffffffffffffffffffffffffffffffffffffff021916905550600101620000ef565b5090565b6000815190506200013c81620002d5565b92915050565b600082601f8301126200015457600080fd5b81516200016b62000165826200026e565b62000240565b915081818352602084019350602081019050838560208402820111156200019157600080fd5b60005b83811015620001c55781620001aa88826200012b565b84526020840193506020830192505060018101905062000194565b5050505092915050565b600081519050620001e081620002ef565b92915050565b60008060408385031215620001fa57600080fd5b600083015167ffffffffffffffff8111156200021557600080fd5b620002238582860162000142565b92505060206200023685828601620001cf565b9150509250929050565b6000604051905081810181811067ffffffffffffffff821117156200026457600080fd5b8060405250919050565b600067ffffffffffffffff8211156200028657600080fd5b602082029050602081019050919050565b6000620002a482620002ab565b9050919050565b600073ffffffffffffffffffffffffffffffffffffffff82169050919050565b6000819050919050565b620002e08162000297565b8114620002ec57600080fd5b50565b620002fa81620002cb565b81146200030657600080fd5b50565b61122680620003196000396000f3fe60806040526004361061008a5760003560e01c8063866dd77611610059578063866dd776146101405780639377d7111461017d578063b759f954146101be578063d3650fb8146101fb578063ffabc6731461023857610091565b80631703a018146100965780632f65142c146100c1578063589de5df146100ec5780636cb3e8ef1461011557610091565b3661009157005b600080fd5b3480156100a257600080fd5b506100ab610275565b6040516100b89190611027565b60405180910390f35b3480156100cd57600080fd5b506100d661027b565b6040516100e39190610f8a565b60405180910390f35b3480156100f857600080fd5b50610113600480360381019061010e9190610b62565b610369565b005b34801561012157600080fd5b5061012a61053c565b6040516101379190610f46565b60405180910390f35b34801561014c57600080fd5b5061016760048036038101906101629190610b39565b6105ca565b6040516101749190610f68565b60405180910390f35b34801561018957600080fd5b506101a4600480360381019061019f9190610bda565b6106be565b6040516101b5959493929190611042565b60405180910390f35b3480156101ca57600080fd5b506101e560048036038101906101e09190610bda565b61072e565b6040516101f29190610fac565b60405180910390f35b34801561020757600080fd5b50610222600480360381019061021d9190610bda565b610a8f565b60405161022f9190610f2b565b60405180910390f35b34801561024457600080fd5b5061025f600480360381019061025a9190610b9e565b610acb565b60405161026c9190610fac565b60405180910390f35b60015481565b60606002805480602002602001604051908101604052809291908181526020016000905b8282101561036057838290600052602060002090600502016040518060a0016040529081600082015481526020016001820160009054906101000a900473ffffffffffffffffffffffffffffffffffffffff1673ffffffffffffffffffffffffffffffffffffffff1673ffffffffffffffffffffffffffffffffffffffff16815260200160028201548152602001600382015481526020016004820160009054906101000a900460ff1615151515815250508152602001906001019061029f565b50505050905090565b6000805b6000805490508110156103f7573373ffffffffffffffffffffffffffffffffffffffff166000828154811061039e57fe5b9060005260206000200160009054906101000a900473ffffffffffffffffffffffffffffffffffffffff1673ffffffffffffffffffffffffffffffffffffffff1614156103ea57600191505b808060010191505061036d565b50600115158115151461043f576040517f08c379a000000000000000000000000000000000000000000000000000000000815260040161043690610fe7565b60405180910390fd5b60026040518060a0016040528060028054905081526020018573ffffffffffffffffffffffffffffffffffffffff168152602001600081526020018481526020016000151581525090806001815401808255809150506001900390600052602060002090600502016000909190919091506000820151816000015560208201518160010160006101000a81548173ffffffffffffffffffffffffffffffffffffffff021916908373ffffffffffffffffffffffffffffffffffffffff160217905550604082015181600201556060820151816003015560808201518160040160006101000a81548160ff0219169083151502179055505050505050565b606060008054806020026020016040519081016040528092919081815260200182805480156105c057602002820191906000526020600020905b8160009054906101000a900473ffffffffffffffffffffffffffffffffffffffff1673ffffffffffffffffffffffffffffffffffffffff1681526020019060010190808311610576575b5050505050905090565b60608060028054905067ffffffffffffffff811180156105e957600080fd5b506040519080825280602002602001820160405280156106185781602001602082028036833780820191505090505b50905060005b6002805490508110156106b457600360008573ffffffffffffffffffffffffffffffffffffffff1673ffffffffffffffffffffffffffffffffffffffff168152602001908152602001600020600082815260200190815260200160002060009054906101000a900460ff1682828151811061069557fe5b602002602001019015159081151581525050808060010191505061061e565b5080915050919050565b600281815481106106cb57fe5b90600052602060002090600502016000915090508060000154908060010160009054906101000a900473ffffffffffffffffffffffffffffffffffffffff16908060020154908060030154908060040160009054906101000a900460ff16905085565b6000806000905060005b6000805490508110156107c2573373ffffffffffffffffffffffffffffffffffffffff166000828154811061076957fe5b9060005260206000200160009054906101000a900473ffffffffffffffffffffffffffffffffffffffff1673ffffffffffffffffffffffffffffffffffffffff1614156107b557600191505b8080600101915050610738565b50600115158115151461080a576040517f08c379a000000000000000000000000000000000000000000000000000000000815260040161080190610fe7565b60405180910390fd5b600015156002848154811061081b57fe5b906000526020600020906005020160040160009054906101000a900460ff1615151461087c576040517f08c379a000000000000000000000000000000000000000000000000000000000815260040161087390610fc7565b60405180910390fd5b60001515600360003373ffffffffffffffffffffffffffffffffffffffff1673ffffffffffffffffffffffffffffffffffffffff168152602001908152602001600020600085815260200190815260200160002060009054906101000a900460ff16151514610920576040517f08c379a000000000000000000000000000000000000000000000000000000000815260040161091790611007565b60405180910390fd5b60006002848154811061092f57fe5b9060005260206000209060050201905080600201600081548092919060010191905055506001600360003373ffffffffffffffffffffffffffffffffffffffff1673ffffffffffffffffffffffffffffffffffffffff168152602001908152602001600020600086815260200190815260200160002060006101000a81548160ff021916908315150217905550600154816002015410610a7c576000600285815481106109d857fe5b906000526020600020906005020160010160009054906101000a900473ffffffffffffffffffffffffffffffffffffffff1690506000826003015490508173ffffffffffffffffffffffffffffffffffffffff166108fc829081150290604051600060405180830381858888f19350505050158015610a5b573d6000803e3d6000fd5b5060018360040160006101000a81548160ff02191690831515021790555050505b6001548160020154101592505050919050565b60008181548110610a9c57fe5b906000526020600020016000915054906101000a900473ffffffffffffffffffffffffffffffffffffffff1681565b60036020528160005260406000206020528060005260406000206000915091509054906101000a900460ff1681565b600081359050610b09816111ab565b92915050565b600081359050610b1e816111c2565b92915050565b600081359050610b33816111d9565b92915050565b600060208284031215610b4b57600080fd5b6000610b5984828501610afa565b91505092915050565b60008060408385031215610b7557600080fd5b6000610b8385828601610b0f565b9250506020610b9485828601610b24565b9150509250929050565b60008060408385031215610bb157600080fd5b6000610bbf85828601610afa565b9250506020610bd085828601610b24565b9150509250929050565b600060208284031215610bec57600080fd5b6000610bfa84828501610b24565b91505092915050565b6000610c0f8383610c69565b60208301905092915050565b6000610c278383610da1565b60208301905092915050565b6000610c3f8383610ea5565b60a08301905092915050565b610c5481611163565b82525050565b610c6381611163565b82525050565b610c7281611151565b82525050565b610c8181611151565b82525050565b6000610c92826110c5565b610c9c818561110d565b9350610ca783611095565b8060005b83811015610cd8578151610cbf8882610c03565b9750610cca836110e6565b925050600181019050610cab565b5085935050505092915050565b6000610cf0826110d0565b610cfa818561111e565b9350610d05836110a5565b8060005b83811015610d36578151610d1d8882610c1b565b9750610d28836110f3565b925050600181019050610d09565b5085935050505092915050565b6000610d4e826110db565b610d58818561112f565b9350610d63836110b5565b8060005b83811015610d94578151610d7b8882610c33565b9750610d8683611100565b925050600181019050610d67565b5085935050505092915050565b610daa81611175565b82525050565b610db981611175565b82525050565b6000610dcc601b83611140565b91507f5472616e7366657220616c72656164792066756c6c66696c65642e00000000006000830152602082019050919050565b6000610e0c602283611140565b91507f43616e206f6e6c792062652063616c6c656420627920616e20617070726f766560008301527f722e0000000000000000000000000000000000000000000000000000000000006020830152604082019050919050565b6000610e72601483611140565b91507f43616e277420617070726f76652074776963652e0000000000000000000000006000830152602082019050919050565b60a082016000820151610ebb6000850182610f0d565b506020820151610ece6020850182610c4b565b506040820151610ee16040850182610f0d565b506060820151610ef46060850182610f0d565b506080820151610f076080850182610da1565b50505050565b610f16816111a1565b82525050565b610f25816111a1565b82525050565b6000602082019050610f406000830184610c78565b92915050565b60006020820190508181036000830152610f608184610c87565b905092915050565b60006020820190508181036000830152610f828184610ce5565b905092915050565b60006020820190508181036000830152610fa48184610d43565b905092915050565b6000602082019050610fc16000830184610db0565b92915050565b60006020820190508181036000830152610fe081610dbf565b9050919050565b6000602082019050818103600083015261100081610dff565b9050919050565b6000602082019050818103600083015261102081610e65565b9050919050565b600060208201905061103c6000830184610f1c565b92915050565b600060a0820190506110576000830188610f1c565b6110646020830187610c5a565b6110716040830186610f1c565b61107e6060830185610f1c565b61108b6080830184610db0565b9695505050505050565b6000819050602082019050919050565b6000819050602082019050919050565b6000819050602082019050919050565b600081519050919050565b600081519050919050565b600081519050919050565b6000602082019050919050565b6000602082019050919050565b6000602082019050919050565b600082825260208201905092915050565b600082825260208201905092915050565b600082825260208201905092915050565b600082825260208201905092915050565b600061115c82611181565b9050919050565b600061116e82611181565b9050919050565b60008115159050919050565b600073ffffffffffffffffffffffffffffffffffffffff82169050919050565b6000819050919050565b6111b481611151565b81146111bf57600080fd5b50565b6111cb81611163565b81146111d657600080fd5b50565b6111e2816111a1565b81146111ed57600080fd5b5056fea26469706673582212209927012ecd0bed75fd73c6f3d9239d96598e1846bf10b6a7f62479aee495ef7864736f6c634300060c0033",
  "immutableReferences": {},
  "source": "//SPDX-License-Identifier: MIT\npragma solidity ^0.6.0;\npragma experimental ABIEncoderV2;\n\ncontract Wallet {\n    address[] public approvers;\n    uint public quorum;\n    struct Transfer {\n        uint id;\n        address payable to;\n        uint approvals;\n        uint amount;\n        bool sent;\n    }\n    Transfer[] public transfers;\n    mapping (address => mapping(uint => bool)) public approvals;\n    \n    constructor (address[] memory _approvers, uint _quorum) public {\n        approvers = _approvers;\n        quorum = _quorum;\n    }\n    \n    function propose (address payable _to, uint _amount) external onlyApprover()  {\n        transfers.push(Transfer(\n            transfers.length,\n            _to,\n            0,//1,\n            _amount,\n            false\n        ));\n//        approvals[msg.sender][transfers.length-1] = true;\n    }\n    //@dev returns if transfer sent\n    function approve (uint _id) external onlyApprover() returns(bool) {\n        require(transfers[_id].sent == false, \"Transfer already fullfiled.\");\n        require(approvals[msg.sender][_id] == false, \"Can't approve twice.\");\n        Transfer storage trans = transfers[_id];\n        trans.approvals++;\n        approvals[msg.sender][_id] = true;\n        if (trans.approvals >= quorum) {\n            address payable recipient = transfers[_id].to;\n            uint amount = trans.amount;\n            recipient.transfer(amount);\n            trans.sent = true;\n        }\n        return trans.approvals >= quorum;\n    }\n    \n    function getApprovers() public view returns (address[] memory) {\n        return approvers;\n    }\n    function getApprovals(address _approver) public view returns (bool[] memory) {\n        bool[] memory hisApprovals = new bool[](transfers.length);\n        for (uint i = 0; i < transfers.length; i++) {\n            hisApprovals[i] = approvals[_approver][i];\n        }\n        return hisApprovals;\n    }\n    function getTransfers() public view returns (Transfer[] memory) {\n        return transfers;\n    }\n    \n    \n    modifier onlyApprover() {\n        bool approver = false;\n        for (uint i=0; i < approvers.length; i++) {\n            if ( approvers[i] == msg.sender ) {\n                approver = true;\n            }\n        }\n        require(approver == true, \"Can only be called by an approver.\");\n        _;\n    }\n    \n    receive() external payable {}    \n    \n}\n",
  "sourcePath": "/Users/mieszko/play/blockchain/eth/courses/multisig/contracts/Wallet.sol",
  "compiler": {
    "name": "solc",
    "version": "0.6.12+commit.27d51765.Emscripten.clang"
  },
  "schemaVersion": "3.3.3",
  "updatedAt": "2021-02-18T16:27:26.381Z",
  "networkType": "ethereum",
  "devdoc": {
    "kind": "dev",
    "methods": {},
    "version": 1
  },
  "userdoc": {
    "kind": "user",
    "methods": {},
    "version": 1
  }
}