{
  "contractName": "Wallet",
  "abi": [
    {
      "inputs": [
        {
          "internalType": "address[]",
          "name": "_approvers",
          "type": "address[]"
        },
        {
          "internalType": "uint256",
          "name": "_quorum",
          "type": "uint256"
        }
      ],
      "stateMutability": "nonpayable",
      "type": "constructor"
    },
    {
      "inputs": [
        {
          "internalType": "address",
          "name": "",
          "type": "address"
        },
        {
          "internalType": "uint256",
          "name": "",
          "type": "uint256"
        }
      ],
      "name": "approvals",
      "outputs": [
        {
          "internalType": "bool",
          "name": "",
          "type": "bool"
        }
      ],
      "stateMutability": "view",
      "type": "function",
      "constant": true
    },
    {
      "inputs": [
        {
          "internalType": "uint256",
          "name": "",
          "type": "uint256"
        }
      ],
      "name": "approvers",
      "outputs": [
        {
          "internalType": "address",
          "name": "",
          "type": "address"
        }
      ],
      "stateMutability": "view",
      "type": "function",
      "constant": true
    },
    {
      "inputs": [],
      "name": "quorum",
      "outputs": [
        {
          "internalType": "uint256",
          "name": "",
          "type": "uint256"
        }
      ],
      "stateMutability": "view",
      "type": "function",
      "constant": true
    },
    {
      "inputs": [
        {
          "internalType": "uint256",
          "name": "",
          "type": "uint256"
        }
      ],
      "name": "transfers",
      "outputs": [
        {
          "internalType": "uint256",
          "name": "id",
          "type": "uint256"
        },
        {
          "internalType": "address payable",
          "name": "to",
          "type": "address"
        },
        {
          "internalType": "uint256",
          "name": "approvals",
          "type": "uint256"
        },
        {
          "internalType": "uint256",
          "name": "amount",
          "type": "uint256"
        },
        {
          "internalType": "bool",
          "name": "sent",
          "type": "bool"
        }
      ],
      "stateMutability": "view",
      "type": "function",
      "constant": true
    },
    {
      "stateMutability": "payable",
      "type": "receive",
      "payable": true
    },
    {
      "inputs": [
        {
          "internalType": "address payable",
          "name": "_to",
          "type": "address"
        },
        {
          "internalType": "uint256",
          "name": "_amount",
          "type": "uint256"
        }
      ],
      "name": "propose",
      "outputs": [],
      "stateMutability": "nonpayable",
      "type": "function"
    },
    {
      "inputs": [
        {
          "internalType": "uint256",
          "name": "_id",
          "type": "uint256"
        }
      ],
      "name": "approve",
      "outputs": [
        {
          "internalType": "bool",
          "name": "",
          "type": "bool"
        }
      ],
      "stateMutability": "nonpayable",
      "type": "function"
    },
    {
      "inputs": [],
      "name": "getApprovers",
      "outputs": [
        {
          "internalType": "address[]",
          "name": "",
          "type": "address[]"
        }
      ],
      "stateMutability": "view",
      "type": "function",
      "constant": true
    },
    {
      "inputs": [],
      "name": "getTransfers",
      "outputs": [
        {
          "components": [
            {
              "internalType": "uint256",
              "name": "id",
              "type": "uint256"
            },
            {
              "internalType": "address payable",
              "name": "to",
              "type": "address"
            },
            {
              "internalType": "uint256",
              "name": "approvals",
              "type": "uint256"
            },
            {
              "internalType": "uint256",
              "name": "amount",
              "type": "uint256"
            },
            {
              "internalType": "bool",
              "name": "sent",
              "type": "bool"
            }
          ],
          "internalType": "struct Wallet.Transfer[]",
          "name": "",
          "type": "tuple[]"
        }
      ],
      "stateMutability": "view",
      "type": "function",
      "constant": true
    }
  ],
  "bytecode": "0x60806040523480156200001157600080fd5b5060405162001309380380620013098339818101604052810190620000379190620001e6565b81600090805190602001906200004f9291906200005f565b5080600181905550505062000309565b828054828255906000526020600020908101928215620000db579160200282015b82811115620000da5782518260006101000a81548173ffffffffffffffffffffffffffffffffffffffff021916908373ffffffffffffffffffffffffffffffffffffffff1602179055509160200191906001019062000080565b5b509050620000ea9190620000ee565b5090565b5b808211156200012757600081816101000a81549073ffffffffffffffffffffffffffffffffffffffff021916905550600101620000ef565b5090565b6000815190506200013c81620002d5565b92915050565b600082601f8301126200015457600080fd5b81516200016b62000165826200026e565b62000240565b915081818352602084019350602081019050838560208402820111156200019157600080fd5b60005b83811015620001c55781620001aa88826200012b565b84526020840193506020830192505060018101905062000194565b5050505092915050565b600081519050620001e081620002ef565b92915050565b60008060408385031215620001fa57600080fd5b600083015167ffffffffffffffff8111156200021557600080fd5b620002238582860162000142565b92505060206200023685828601620001cf565b9150509250929050565b6000604051905081810181811067ffffffffffffffff821117156200026457600080fd5b8060405250919050565b600067ffffffffffffffff8211156200028657600080fd5b602082029050602081019050919050565b6000620002a482620002ab565b9050919050565b600073ffffffffffffffffffffffffffffffffffffffff82169050919050565b6000819050919050565b620002e08162000297565b8114620002ec57600080fd5b50565b620002fa81620002cb565b81146200030657600080fd5b50565b610ff080620003196000396000f3fe60806040526004361061007f5760003560e01c80639377d7111161004e5780639377d71114610135578063b759f95414610176578063d3650fb8146101b3578063ffabc673146101f057610086565b80631703a0181461008b5780632f65142c146100b6578063589de5df146100e15780636cb3e8ef1461010a57610086565b3661008657005b600080fd5b34801561009757600080fd5b506100a061022d565b6040516100ad9190610e2a565b60405180910390f35b3480156100c257600080fd5b506100cb610233565b6040516100d89190610d8d565b60405180910390f35b3480156100ed57600080fd5b50610108600480360381019061010391906109fd565b610321565b005b34801561011657600080fd5b5061011f6104f4565b60405161012c9190610d6b565b60405180910390f35b34801561014157600080fd5b5061015c60048036038101906101579190610a75565b610582565b60405161016d959493929190610e45565b60405180910390f35b34801561018257600080fd5b5061019d60048036038101906101989190610a75565b6105f2565b6040516101aa9190610daf565b60405180910390f35b3480156101bf57600080fd5b506101da60048036038101906101d59190610a75565b610953565b6040516101e79190610d50565b60405180910390f35b3480156101fc57600080fd5b5061021760048036038101906102129190610a39565b61098f565b6040516102249190610daf565b60405180910390f35b60015481565b60606002805480602002602001604051908101604052809291908181526020016000905b8282101561031857838290600052602060002090600502016040518060a0016040529081600082015481526020016001820160009054906101000a900473ffffffffffffffffffffffffffffffffffffffff1673ffffffffffffffffffffffffffffffffffffffff1673ffffffffffffffffffffffffffffffffffffffff16815260200160028201548152602001600382015481526020016004820160009054906101000a900460ff16151515158152505081526020019060010190610257565b50505050905090565b6000805b6000805490508110156103af573373ffffffffffffffffffffffffffffffffffffffff166000828154811061035657fe5b9060005260206000200160009054906101000a900473ffffffffffffffffffffffffffffffffffffffff1673ffffffffffffffffffffffffffffffffffffffff1614156103a257600191505b8080600101915050610325565b5060011515811515146103f7576040517f08c379a00000000000000000000000000000000000000000000000000000000081526004016103ee90610dea565b60405180910390fd5b60026040518060a0016040528060028054905081526020018573ffffffffffffffffffffffffffffffffffffffff168152602001600081526020018481526020016000151581525090806001815401808255809150506001900390600052602060002090600502016000909190919091506000820151816000015560208201518160010160006101000a81548173ffffffffffffffffffffffffffffffffffffffff021916908373ffffffffffffffffffffffffffffffffffffffff160217905550604082015181600201556060820151816003015560808201518160040160006101000a81548160ff0219169083151502179055505050505050565b6060600080548060200260200160405190810160405280929190818152602001828054801561057857602002820191906000526020600020905b8160009054906101000a900473ffffffffffffffffffffffffffffffffffffffff1673ffffffffffffffffffffffffffffffffffffffff168152602001906001019080831161052e575b5050505050905090565b6002818154811061058f57fe5b90600052602060002090600502016000915090508060000154908060010160009054906101000a900473ffffffffffffffffffffffffffffffffffffffff16908060020154908060030154908060040160009054906101000a900460ff16905085565b6000806000905060005b600080549050811015610686573373ffffffffffffffffffffffffffffffffffffffff166000828154811061062d57fe5b9060005260206000200160009054906101000a900473ffffffffffffffffffffffffffffffffffffffff1673ffffffffffffffffffffffffffffffffffffffff16141561067957600191505b80806001019150506105fc565b5060011515811515146106ce576040517f08c379a00000000000000000000000000000000000000000000000000000000081526004016106c590610dea565b60405180910390fd5b60001515600284815481106106df57fe5b906000526020600020906005020160040160009054906101000a900460ff16151514610740576040517f08c379a000000000000000000000000000000000000000000000000000000000815260040161073790610dca565b60405180910390fd5b60001515600360003373ffffffffffffffffffffffffffffffffffffffff1673ffffffffffffffffffffffffffffffffffffffff168152602001908152602001600020600085815260200190815260200160002060009054906101000a900460ff161515146107e4576040517f08c379a00000000000000000000000000000000000000000000000000000000081526004016107db90610e0a565b60405180910390fd5b6000600284815481106107f357fe5b9060005260206000209060050201905080600201600081548092919060010191905055506001600360003373ffffffffffffffffffffffffffffffffffffffff1673ffffffffffffffffffffffffffffffffffffffff168152602001908152602001600020600086815260200190815260200160002060006101000a81548160ff0219169083151502179055506001548160020154106109405760006002858154811061089c57fe5b906000526020600020906005020160010160009054906101000a900473ffffffffffffffffffffffffffffffffffffffff1690506000826003015490508173ffffffffffffffffffffffffffffffffffffffff166108fc829081150290604051600060405180830381858888f1935050505015801561091f573d6000803e3d6000fd5b5060018360040160006101000a81548160ff02191690831515021790555050505b6001548160020154101592505050919050565b6000818154811061096057fe5b906000526020600020016000915054906101000a900473ffffffffffffffffffffffffffffffffffffffff1681565b60036020528160005260406000206020528060005260406000206000915091509054906101000a900460ff1681565b6000813590506109cd81610f75565b92915050565b6000813590506109e281610f8c565b92915050565b6000813590506109f781610fa3565b92915050565b60008060408385031215610a1057600080fd5b6000610a1e858286016109d3565b9250506020610a2f858286016109e8565b9150509250929050565b60008060408385031215610a4c57600080fd5b6000610a5a858286016109be565b9250506020610a6b858286016109e8565b9150509250929050565b600060208284031215610a8757600080fd5b6000610a95848285016109e8565b91505092915050565b6000610aaa8383610aec565b60208301905092915050565b6000610ac28383610cca565b60a08301905092915050565b610ad781610f2d565b82525050565b610ae681610f2d565b82525050565b610af581610f1b565b82525050565b610b0481610f1b565b82525050565b6000610b1582610eb8565b610b1f8185610ee8565b9350610b2a83610e98565b8060005b83811015610b5b578151610b428882610a9e565b9750610b4d83610ece565b925050600181019050610b2e565b5085935050505092915050565b6000610b7382610ec3565b610b7d8185610ef9565b9350610b8883610ea8565b8060005b83811015610bb9578151610ba08882610ab6565b9750610bab83610edb565b925050600181019050610b8c565b5085935050505092915050565b610bcf81610f3f565b82525050565b610bde81610f3f565b82525050565b6000610bf1601b83610f0a565b91507f5472616e7366657220616c72656164792066756c6c66696c65642e00000000006000830152602082019050919050565b6000610c31602283610f0a565b91507f43616e206f6e6c792062652063616c6c656420627920616e20617070726f766560008301527f722e0000000000000000000000000000000000000000000000000000000000006020830152604082019050919050565b6000610c97601483610f0a565b91507f43616e277420617070726f76652074776963652e0000000000000000000000006000830152602082019050919050565b60a082016000820151610ce06000850182610d32565b506020820151610cf36020850182610ace565b506040820151610d066040850182610d32565b506060820151610d196060850182610d32565b506080820151610d2c6080850182610bc6565b50505050565b610d3b81610f6b565b82525050565b610d4a81610f6b565b82525050565b6000602082019050610d656000830184610afb565b92915050565b60006020820190508181036000830152610d858184610b0a565b905092915050565b60006020820190508181036000830152610da78184610b68565b905092915050565b6000602082019050610dc46000830184610bd5565b92915050565b60006020820190508181036000830152610de381610be4565b9050919050565b60006020820190508181036000830152610e0381610c24565b9050919050565b60006020820190508181036000830152610e2381610c8a565b9050919050565b6000602082019050610e3f6000830184610d41565b92915050565b600060a082019050610e5a6000830188610d41565b610e676020830187610add565b610e746040830186610d41565b610e816060830185610d41565b610e8e6080830184610bd5565b9695505050505050565b6000819050602082019050919050565b6000819050602082019050919050565b600081519050919050565b600081519050919050565b6000602082019050919050565b6000602082019050919050565b600082825260208201905092915050565b600082825260208201905092915050565b600082825260208201905092915050565b6000610f2682610f4b565b9050919050565b6000610f3882610f4b565b9050919050565b60008115159050919050565b600073ffffffffffffffffffffffffffffffffffffffff82169050919050565b6000819050919050565b610f7e81610f1b565b8114610f8957600080fd5b50565b610f9581610f2d565b8114610fa057600080fd5b50565b610fac81610f6b565b8114610fb757600080fd5b5056fea264697066735822122004c333dfd8a0345eb27673b4199227a99fd8d8f2a8c5c485473b90a03e8b33f964736f6c634300060c0033",
  "immutableReferences": {},
  "source": "//SPDX-License-Identifier: MIT\npragma solidity ^0.6.0;\npragma experimental ABIEncoderV2;\n\ncontract Wallet {\n    address[] public approvers;\n    uint public quorum;\n    struct Transfer {\n        uint id;\n        address payable to;\n        uint approvals;\n        uint amount;\n        bool sent;\n    }\n    Transfer[] public transfers;\n    mapping (address => mapping(uint => bool)) public approvals;\n    \n    constructor (address[] memory _approvers, uint _quorum) public {\n        approvers = _approvers;\n        quorum = _quorum;\n    }\n    \n    function propose (address payable _to, uint _amount) external onlyApprover()  {\n        transfers.push(Transfer(\n            transfers.length,\n            _to,\n            0,//1,\n            _amount,\n            false\n        ));\n//        approvals[msg.sender][transfers.length-1] = true;\n    }\n    //@dev returns if transfer sent\n    function approve (uint _id) external onlyApprover() returns(bool) {\n        require(transfers[_id].sent == false, \"Transfer already fullfiled.\");\n        require(approvals[msg.sender][_id] == false, \"Can't approve twice.\");\n        Transfer storage trans = transfers[_id];\n        trans.approvals++;\n        approvals[msg.sender][_id] = true;\n        if (trans.approvals >= quorum) {\n            address payable recipient = transfers[_id].to;\n            uint amount = trans.amount;\n            recipient.transfer(amount);\n            trans.sent = true;\n        }\n        return trans.approvals >= quorum;\n    }\n    \n    function getApprovers() public view returns (address[] memory) {\n        return approvers;\n    }\n    function getTransfers() public view returns (Transfer[] memory) {\n        return transfers;\n    }\n    \n    \n    modifier onlyApprover() {\n        bool approver = false;\n        for (uint i=0; i < approvers.length; i++) {\n            if ( approvers[i] == msg.sender ) {\n                approver = true;\n            }\n        }\n        require(approver == true, \"Can only be called by an approver.\");\n        _;\n    }\n    \n    receive() external payable {}    \n    \n}\n",
  "sourcePath": "/Users/mieszko/play/blockchain/eth/courses/multisig/contracts/Wallet.sol",
  "compiler": {
    "name": "solc",
    "version": "0.6.12+commit.27d51765.Emscripten.clang"
  },
  "schemaVersion": "3.3.3",
  "updatedAt": "2021-02-18T15:55:48.933Z",
  "networkType": "ethereum",
  "devdoc": {
    "kind": "dev",
    "methods": {},
    "version": 1
  },
  "userdoc": {
    "kind": "user",
    "methods": {},
    "version": 1
  }
}